:100000000EC01DC01CC01BC01AC019C018C017C02C
:1000100016C015C014C013C012C02EC04AC011248F
:100020001FBECFE5D1E0DEBFCDBF10E0A0E6B0E05F
:1000300001C01D92A437B107E1F7D6D0DFC0E0CFF1
:10004000F89484E30CD0789480E090E0FC01EF59C0
:10005000FF4F1082019680319105C1F7089580937A
:10006000710087B3856087BBC29AC09AB89888EA46
:100070008DB980EF8EB908951F920F920FB60F922F
:1000800011248F931092730010927200B898B29B53
:1000900002C0B09BFCCFB09902C088EF01C088EAD3
:1000A0008DB980EF8EB98F910F900FBE0F901F907A
:1000B00018951F920F920FB60F9211242F933F9312
:1000C0008F939F93EF93FF938091720090917300B1
:1000D0008230910509F44BC030F4009769F0019724
:1000E00009F077C02AC08430910509F449C0F8F0BE
:1000F000059709F06EC04DC08FB1882349F08FB1CC
:100100002091710090E08E7F30E08217930791F488
:10011000789B03C081E090E054C084E090E090932D
:100120007300809372008FEF809360004EC08FB198
:10013000882319F088EA8DB92AC0809160008F3F2A
:1001400011F410926000E0916000F0E0EF59FF4F71
:1001500080818FB9809160008F5F8093600082E022
:1001600090E09093730080937200B89A10C083E07F
:1001700090E090937300809372001FB8B89827C0E6
:1001800085E090E09093730080937200B89880E7C8
:100190001FC08FB1909160009F3F31F4813108F40E
:1001A0000CC0109260000BC0E0916000F0E0EF59CD
:1001B000FF4F8083809160008F5F8093600084E0B8
:1001C00090E090937300809372001FB8B89A8EE706
:1001D0008EB9FF91EF919F918F913F912F910F9049
:1001E0000FBE0F901F901895BC9A2ADF8091610076
:1001F000882311F0C498FACFC49AF8CFF894FFCFAF
:00000001FF
